{
  "contractName": "KryptoBird",
  "abi": [
    {
      "inputs": [],
      "stateMutability": "nonpayable",
      "type": "constructor"
    },
    {
      "anonymous": false,
      "inputs": [
        {
          "indexed": true,
          "internalType": "address",
          "name": "_owner",
          "type": "address"
        },
        {
          "indexed": true,
          "internalType": "address",
          "name": "_approved",
          "type": "address"
        },
        {
          "indexed": true,
          "internalType": "uint256",
          "name": "_tokenId",
          "type": "uint256"
        }
      ],
      "name": "Approval",
      "type": "event"
    },
    {
      "anonymous": false,
      "inputs": [
        {
          "indexed": true,
          "internalType": "address",
          "name": "_owner",
          "type": "address"
        },
        {
          "indexed": true,
          "internalType": "address",
          "name": "_operator",
          "type": "address"
        },
        {
          "indexed": false,
          "internalType": "bool",
          "name": "_approved",
          "type": "bool"
        }
      ],
      "name": "ApprovalForAll",
      "type": "event"
    },
    {
      "anonymous": false,
      "inputs": [
        {
          "indexed": true,
          "internalType": "address",
          "name": "_from",
          "type": "address"
        },
        {
          "indexed": true,
          "internalType": "address",
          "name": "_to",
          "type": "address"
        },
        {
          "indexed": true,
          "internalType": "uint256",
          "name": "_tokenId",
          "type": "uint256"
        }
      ],
      "name": "Transfer",
      "type": "event"
    },
    {
      "inputs": [
        {
          "internalType": "address",
          "name": "_to",
          "type": "address"
        },
        {
          "internalType": "uint256",
          "name": "tokenId",
          "type": "uint256"
        }
      ],
      "name": "approve",
      "outputs": [],
      "stateMutability": "nonpayable",
      "type": "function"
    },
    {
      "inputs": [
        {
          "internalType": "address",
          "name": "_owner",
          "type": "address"
        }
      ],
      "name": "balanceOf",
      "outputs": [
        {
          "internalType": "uint256",
          "name": "",
          "type": "uint256"
        }
      ],
      "stateMutability": "view",
      "type": "function",
      "constant": true
    },
    {
      "inputs": [
        {
          "internalType": "uint256",
          "name": "tokenId",
          "type": "uint256"
        }
      ],
      "name": "getApproved",
      "outputs": [
        {
          "internalType": "address",
          "name": "",
          "type": "address"
        }
      ],
      "stateMutability": "view",
      "type": "function",
      "constant": true
    },
    {
      "inputs": [
        {
          "internalType": "address",
          "name": "owner",
          "type": "address"
        },
        {
          "internalType": "address",
          "name": "operator",
          "type": "address"
        }
      ],
      "name": "isApprovedForAll",
      "outputs": [
        {
          "internalType": "bool",
          "name": "",
          "type": "bool"
        }
      ],
      "stateMutability": "view",
      "type": "function",
      "constant": true
    },
    {
      "inputs": [
        {
          "internalType": "uint256",
          "name": "",
          "type": "uint256"
        }
      ],
      "name": "kryptoBirdz",
      "outputs": [
        {
          "internalType": "string",
          "name": "",
          "type": "string"
        }
      ],
      "stateMutability": "view",
      "type": "function",
      "constant": true
    },
    {
      "inputs": [],
      "name": "name",
      "outputs": [
        {
          "internalType": "string",
          "name": "",
          "type": "string"
        }
      ],
      "stateMutability": "view",
      "type": "function",
      "constant": true
    },
    {
      "inputs": [
        {
          "internalType": "uint256",
          "name": "_tokenId",
          "type": "uint256"
        }
      ],
      "name": "ownerOf",
      "outputs": [
        {
          "internalType": "address",
          "name": "",
          "type": "address"
        }
      ],
      "stateMutability": "view",
      "type": "function",
      "constant": true
    },
    {
      "inputs": [
        {
          "internalType": "bytes4",
          "name": "interfaceID",
          "type": "bytes4"
        }
      ],
      "name": "supportsInterface",
      "outputs": [
        {
          "internalType": "bool",
          "name": "",
          "type": "bool"
        }
      ],
      "stateMutability": "view",
      "type": "function",
      "constant": true
    },
    {
      "inputs": [],
      "name": "symbol",
      "outputs": [
        {
          "internalType": "string",
          "name": "",
          "type": "string"
        }
      ],
      "stateMutability": "view",
      "type": "function",
      "constant": true
    },
    {
      "inputs": [
        {
          "internalType": "uint256",
          "name": "index",
          "type": "uint256"
        }
      ],
      "name": "tokenByIndex",
      "outputs": [
        {
          "internalType": "uint256",
          "name": "",
          "type": "uint256"
        }
      ],
      "stateMutability": "view",
      "type": "function",
      "constant": true
    },
    {
      "inputs": [
        {
          "internalType": "address",
          "name": "owner",
          "type": "address"
        },
        {
          "internalType": "uint256",
          "name": "index",
          "type": "uint256"
        }
      ],
      "name": "tokenOfOwnerByIndex",
      "outputs": [
        {
          "internalType": "uint256",
          "name": "",
          "type": "uint256"
        }
      ],
      "stateMutability": "view",
      "type": "function",
      "constant": true
    },
    {
      "inputs": [],
      "name": "totalSupply",
      "outputs": [
        {
          "internalType": "uint256",
          "name": "",
          "type": "uint256"
        }
      ],
      "stateMutability": "view",
      "type": "function",
      "constant": true
    },
    {
      "inputs": [
        {
          "internalType": "address",
          "name": "_from",
          "type": "address"
        },
        {
          "internalType": "address",
          "name": "_to",
          "type": "address"
        },
        {
          "internalType": "uint256",
          "name": "_tokenId",
          "type": "uint256"
        }
      ],
      "name": "transferFrom",
      "outputs": [],
      "stateMutability": "nonpayable",
      "type": "function"
    },
    {
      "inputs": [
        {
          "internalType": "string",
          "name": "_kryptoBird",
          "type": "string"
        }
      ],
      "name": "mint",
      "outputs": [],
      "stateMutability": "nonpayable",
      "type": "function"
    }
  ],
  "bytecode": "0x60806040523480156200001157600080fd5b506040518060400160405280600a81526020017f4b727970746f42697264000000000000000000000000000000000000000000008152506040518060400160405280600681526020017f4b424952445a00000000000000000000000000000000000000000000000000008152508181620000b17f01ffc9a7a5cef8baa21ed3c5c0d7e23accb804b619e9333b597f47a0d84076e26200022a60201b60201c565b620001047f13b182f4c0e5b2efbac0efe6cf6d756c8b89f4b79c5707a043ed9ea740574ee97f7feaf19471f34a12a7eaf32d5f3090aa2260ea8624dc8a138e74e0bf0f623076186200022a60201b60201c565b81600190805190602001906200011c92919062000302565b5080600290805190602001906200013592919062000302565b505050620001ad7f22c82707ba960a14c7592ffb6b8cfaa073fed0048a84cc7fa41f6b5bd8e7f2e47f3a6eb71757dfc6e784c1459d26270140c2c147d95ca985c80026fc5301c3eca17f8a7e378434598edc36d108689a030cbc9d7d465de4f74c71bae1028eed6a881b18186200022a60201b60201c565b620002227f8230223f691b981717299fae9549350a0d894555723531f02108b1f522c1a7977fc53637662700e6c65104059db8bba34439e0c32483ab7c34e3ccae52c73954957f6da5e1284143cdd2d15038a59bde3be031250f00291d64494c12d967b3a4e0c318186200022a60201b60201c565b50506200049a565b63ffffffff60e01b817bffffffffffffffffffffffffffffffffffffffffffffffffffffffff1916141562000296576040517f08c379a00000000000000000000000000000000000000000000000000000000081526004016200028d9062000413565b60405180910390fd5b6001600080837bffffffffffffffffffffffffffffffffffffffffffffffffffffffff19167bffffffffffffffffffffffffffffffffffffffffffffffffffffffff1916815260200190815260200160002060006101000a81548160ff02191690831515021790555050565b828054620003109062000464565b90600052602060002090601f01602090048101928262000334576000855562000380565b82601f106200034f57805160ff191683800117855562000380565b8280016001018555821562000380579182015b828111156200037f57825182559160200191906001019062000362565b5b5090506200038f919062000393565b5090565b5b80821115620003ae57600081600090555060010162000394565b5090565b600082825260208201905092915050565b7f4572726f723a20696e76616c696420696e746572666163652049440000000000600082015250565b6000620003fb601b83620003b2565b91506200040882620003c3565b602082019050919050565b600060208201905081810360008301526200042e81620003ec565b9050919050565b7f4e487b7100000000000000000000000000000000000000000000000000000000600052602260045260246000fd5b600060028204905060018216806200047d57607f821691505b6020821081141562000494576200049362000435565b5b50919050565b61206580620004aa6000396000f3fe608060405234801561001057600080fd5b50600436106100ea5760003560e01c80634f6ccce71161008c57806393ab6e561161006657806393ab6e561461028357806395d89b41146102b3578063d85d3d27146102d1578063e985e9c5146102ed576100ea565b80634f6ccce7146101f35780636352211e1461022357806370a0823114610253576100ea565b8063095ea7b3116100c8578063095ea7b31461016d57806318160ddd1461018957806323b872dd146101a75780632f745c59146101c3576100ea565b806301ffc9a7146100ef57806306fdde031461011f578063081812fc1461013d575b600080fd5b6101096004803603810190610104919061135c565b61031d565b60405161011691906113a4565b60405180910390f35b610127610384565b6040516101349190611458565b60405180910390f35b610157600480360381019061015291906114b0565b610416565b604051610164919061151e565b60405180910390f35b61018760048036038101906101829190611565565b61049b565b005b610191610637565b60405161019e91906115b4565b60405180910390f35b6101c160048036038101906101bc91906115cf565b610644565b005b6101dd60048036038101906101d89190611565565b610667565b6040516101ea91906115b4565b60405180910390f35b61020d600480360381019061020891906114b0565b610717565b60405161021a91906115b4565b60405180910390f35b61023d600480360381019061023891906114b0565b610788565b60405161024a919061151e565b60405180910390f35b61026d60048036038101906102689190611622565b61083a565b60405161027a91906115b4565b60405180910390f35b61029d600480360381019061029891906114b0565b6108f2565b6040516102aa9190611458565b60405180910390f35b6102bb61099e565b6040516102c89190611458565b60405180910390f35b6102eb60048036038101906102e69190611784565b610a30565b005b610307600480360381019061030291906117cd565b610b33565b60405161031491906113a4565b60405180910390f35b6000806000837bffffffffffffffffffffffffffffffffffffffffffffffffffffffff19167bffffffffffffffffffffffffffffffffffffffffffffffffffffffff1916815260200190815260200160002060009054906101000a900460ff169050919050565b6060600180546103939061183c565b80601f01602080910402602001604051908101604052809291908181526020018280546103bf9061183c565b801561040c5780601f106103e15761010080835404028352916020019161040c565b820191906000526020600020905b8154815290600101906020018083116103ef57829003601f168201915b5050505050905090565b600061042182610bc7565b610460576040517f08c379a0000000000000000000000000000000000000000000000000000000008152600401610457906118e0565b60405180910390fd5b6005600083815260200190815260200160002060009054906101000a900473ffffffffffffffffffffffffffffffffffffffff169050919050565b60006104a682610788565b90508073ffffffffffffffffffffffffffffffffffffffff168373ffffffffffffffffffffffffffffffffffffffff161415610517576040517f08c379a000000000000000000000000000000000000000000000000000000000815260040161050e90611972565b60405180910390fd5b8073ffffffffffffffffffffffffffffffffffffffff163373ffffffffffffffffffffffffffffffffffffffff1614610585576040517f08c379a000000000000000000000000000000000000000000000000000000000815260040161057c906119de565b60405180910390fd5b826005600084815260200190815260200160002060006101000a81548173ffffffffffffffffffffffffffffffffffffffff021916908373ffffffffffffffffffffffffffffffffffffffff160217905550818373ffffffffffffffffffffffffffffffffffffffff168273ffffffffffffffffffffffffffffffffffffffff167f8c5be1e5ebec7d5bd14f71427d1e84f3dd0314c0f7b2291e5b200ac8c7c3b92560405160405180910390a4505050565b6000600780549050905090565b61064e3382610c39565b61065757600080fd5b610662838383610d17565b505050565b60006106728361083a565b82106106b3576040517f08c379a00000000000000000000000000000000000000000000000000000000081526004016106aa90611a4a565b60405180910390fd5b600960008473ffffffffffffffffffffffffffffffffffffffff1673ffffffffffffffffffffffffffffffffffffffff168152602001908152602001600020828154811061070457610703611a6a565b5b9060005260206000200154905092915050565b6000610721610637565b8210610762576040517f08c379a000000000000000000000000000000000000000000000000000000000815260040161075990611ae5565b60405180910390fd5b6007828154811061077657610775611a6a565b5b90600052602060002001549050919050565b6000806003600084815260200190815260200160002060009054906101000a900473ffffffffffffffffffffffffffffffffffffffff169050600073ffffffffffffffffffffffffffffffffffffffff168173ffffffffffffffffffffffffffffffffffffffff161415610831576040517f08c379a000000000000000000000000000000000000000000000000000000000815260040161082890611b77565b60405180910390fd5b80915050919050565b60008073ffffffffffffffffffffffffffffffffffffffff168273ffffffffffffffffffffffffffffffffffffffff1614156108ab576040517f08c379a00000000000000000000000000000000000000000000000000000000081526004016108a290611c09565b60405180910390fd5b600460008373ffffffffffffffffffffffffffffffffffffffff1673ffffffffffffffffffffffffffffffffffffffff168152602001908152602001600020549050919050565b600b818154811061090257600080fd5b90600052602060002001600091509050805461091d9061183c565b80601f01602080910402602001604051908101604052809291908181526020018280546109499061183c565b80156109965780601f1061096b57610100808354040283529160200191610996565b820191906000526020600020905b81548152906001019060200180831161097957829003601f168201915b505050505081565b6060600280546109ad9061183c565b80601f01602080910402602001604051908101604052809291908181526020018280546109d99061183c565b8015610a265780601f106109fb57610100808354040283529160200191610a26565b820191906000526020600020905b815481529060010190602001808311610a0957829003601f168201915b5050505050905090565b600c81604051610a409190611c65565b908152602001604051809103902060009054906101000a900460ff1615610a9c576040517f08c379a0000000000000000000000000000000000000000000000000000000008152600401610a9390611cc8565b60405180910390fd5b600b81908060018154018082558091505060019003906000526020600020016000909190919091509080519060200190610ad792919061124d565b5060006001600b80549050610aec9190611d17565b9050610af83382610f5d565b6001600c83604051610b0a9190611c65565b908152602001604051809103902060006101000a81548160ff0219169083151502179055505050565b6000600660008473ffffffffffffffffffffffffffffffffffffffff1673ffffffffffffffffffffffffffffffffffffffff16815260200190815260200160002060008373ffffffffffffffffffffffffffffffffffffffff1673ffffffffffffffffffffffffffffffffffffffff16815260200190815260200160002060009054906101000a900460ff16905092915050565b6000806003600084815260200190815260200160002060009054906101000a900473ffffffffffffffffffffffffffffffffffffffff169050600073ffffffffffffffffffffffffffffffffffffffff168173ffffffffffffffffffffffffffffffffffffffff161415915050919050565b6000610c4482610bc7565b610c83576040517f08c379a0000000000000000000000000000000000000000000000000000000008152600401610c7a90611d97565b60405180910390fd5b6000610c8e83610788565b90508073ffffffffffffffffffffffffffffffffffffffff168473ffffffffffffffffffffffffffffffffffffffff161480610cfd57508373ffffffffffffffffffffffffffffffffffffffff16610ce584610416565b73ffffffffffffffffffffffffffffffffffffffff16145b80610d0e5750610d0d8185610b33565b5b91505092915050565b600073ffffffffffffffffffffffffffffffffffffffff168273ffffffffffffffffffffffffffffffffffffffff161415610d87576040517f08c379a0000000000000000000000000000000000000000000000000000000008152600401610d7e90611e29565b60405180910390fd5b8273ffffffffffffffffffffffffffffffffffffffff16610da782610788565b73ffffffffffffffffffffffffffffffffffffffff1614610dfd576040517f08c379a0000000000000000000000000000000000000000000000000000000008152600401610df490611ebb565b60405180910390fd5b6001600460008573ffffffffffffffffffffffffffffffffffffffff1673ffffffffffffffffffffffffffffffffffffffff1681526020019081526020016000206000828254610e4d9190611d17565b925050819055506001600460008473ffffffffffffffffffffffffffffffffffffffff1673ffffffffffffffffffffffffffffffffffffffff1681526020019081526020016000206000828254610ea49190611edb565b92505081905550816003600083815260200190815260200160002060006101000a81548173ffffffffffffffffffffffffffffffffffffffff021916908373ffffffffffffffffffffffffffffffffffffffff160217905550808273ffffffffffffffffffffffffffffffffffffffff168473ffffffffffffffffffffffffffffffffffffffff167fddf252ad1be2c89b69c2b068fc378daa952ba7f163c4a11628f55a4df523b3ef60405160405180910390a4505050565b610f678282610f7e565b610f7081611140565b610f7a8282611189565b5050565b600073ffffffffffffffffffffffffffffffffffffffff168273ffffffffffffffffffffffffffffffffffffffff161415610fee576040517f08c379a0000000000000000000000000000000000000000000000000000000008152600401610fe590611fa3565b60405180910390fd5b610ff781610bc7565b15611037576040517f08c379a000000000000000000000000000000000000000000000000000000000815260040161102e9061200f565b60405180910390fd5b816003600083815260200190815260200160002060006101000a81548173ffffffffffffffffffffffffffffffffffffffff021916908373ffffffffffffffffffffffffffffffffffffffff1602179055506001600460008473ffffffffffffffffffffffffffffffffffffffff1673ffffffffffffffffffffffffffffffffffffffff16815260200190815260200160002060008282546110d99190611edb565b92505081905550808273ffffffffffffffffffffffffffffffffffffffff16600073ffffffffffffffffffffffffffffffffffffffff167fddf252ad1be2c89b69c2b068fc378daa952ba7f163c4a11628f55a4df523b3ef60405160405180910390a45050565b6007805490506008600083815260200190815260200160002081905550600781908060018154018082558091505060019003906000526020600020016000909190919091505550565b600960008373ffffffffffffffffffffffffffffffffffffffff1673ffffffffffffffffffffffffffffffffffffffff16815260200190815260200160002080549050600a600083815260200190815260200160002081905550600960008373ffffffffffffffffffffffffffffffffffffffff1673ffffffffffffffffffffffffffffffffffffffff1681526020019081526020016000208190806001815401808255809150506001900390600052602060002001600090919091909150555050565b8280546112599061183c565b90600052602060002090601f01602090048101928261127b57600085556112c2565b82601f1061129457805160ff19168380011785556112c2565b828001600101855582156112c2579182015b828111156112c15782518255916020019190600101906112a6565b5b5090506112cf91906112d3565b5090565b5b808211156112ec5760008160009055506001016112d4565b5090565b6000604051905090565b600080fd5b600080fd5b60007fffffffff0000000000000000000000000000000000000000000000000000000082169050919050565b61133981611304565b811461134457600080fd5b50565b60008135905061135681611330565b92915050565b600060208284031215611372576113716112fa565b5b600061138084828501611347565b91505092915050565b60008115159050919050565b61139e81611389565b82525050565b60006020820190506113b96000830184611395565b92915050565b600081519050919050565b600082825260208201905092915050565b60005b838110156113f95780820151818401526020810190506113de565b83811115611408576000848401525b50505050565b6000601f19601f8301169050919050565b600061142a826113bf565b61143481856113ca565b93506114448185602086016113db565b61144d8161140e565b840191505092915050565b60006020820190508181036000830152611472818461141f565b905092915050565b6000819050919050565b61148d8161147a565b811461149857600080fd5b50565b6000813590506114aa81611484565b92915050565b6000602082840312156114c6576114c56112fa565b5b60006114d48482850161149b565b91505092915050565b600073ffffffffffffffffffffffffffffffffffffffff82169050919050565b6000611508826114dd565b9050919050565b611518816114fd565b82525050565b6000602082019050611533600083018461150f565b92915050565b611542816114fd565b811461154d57600080fd5b50565b60008135905061155f81611539565b92915050565b6000806040838503121561157c5761157b6112fa565b5b600061158a85828601611550565b925050602061159b8582860161149b565b9150509250929050565b6115ae8161147a565b82525050565b60006020820190506115c960008301846115a5565b92915050565b6000806000606084860312156115e8576115e76112fa565b5b60006115f686828701611550565b935050602061160786828701611550565b92505060406116188682870161149b565b9150509250925092565b600060208284031215611638576116376112fa565b5b600061164684828501611550565b91505092915050565b600080fd5b600080fd5b7f4e487b7100000000000000000000000000000000000000000000000000000000600052604160045260246000fd5b6116918261140e565b810181811067ffffffffffffffff821117156116b0576116af611659565b5b80604052505050565b60006116c36112f0565b90506116cf8282611688565b919050565b600067ffffffffffffffff8211156116ef576116ee611659565b5b6116f88261140e565b9050602081019050919050565b82818337600083830152505050565b6000611727611722846116d4565b6116b9565b90508281526020810184848401111561174357611742611654565b5b61174e848285611705565b509392505050565b600082601f83011261176b5761176a61164f565b5b813561177b848260208601611714565b91505092915050565b60006020828403121561179a576117996112fa565b5b600082013567ffffffffffffffff8111156117b8576117b76112ff565b5b6117c484828501611756565b91505092915050565b600080604083850312156117e4576117e36112fa565b5b60006117f285828601611550565b925050602061180385828601611550565b9150509250929050565b7f4e487b7100000000000000000000000000000000000000000000000000000000600052602260045260246000fd5b6000600282049050600182168061185457607f821691505b602082108114156118685761186761180d565b5b50919050565b7f4552433732313a20617070726f76656420717565727920666f72206e6f6e657860008201527f697374656e7420746f6b656e0000000000000000000000000000000000000000602082015250565b60006118ca602c836113ca565b91506118d58261186e565b604082019050919050565b600060208201905081810360008301526118f9816118bd565b9050919050565b7f4572726f722c2063616e7420617070726f76652073656e64696e6720746f207960008201527f6f757273656c6600000000000000000000000000000000000000000000000000602082015250565b600061195c6027836113ca565b915061196782611900565b604082019050919050565b6000602082019050818103600083015261198b8161194f565b9050919050565b7f4572726f722c20796f7520646f6e74206f776e207468697320746f6b656e0000600082015250565b60006119c8601e836113ca565b91506119d382611992565b602082019050919050565b600060208201905081810360008301526119f7816119bb565b9050919050565b7f6f776e657220696e646578206973206f7574206f6620626f756e647321000000600082015250565b6000611a34601d836113ca565b9150611a3f826119fe565b602082019050919050565b60006020820190508181036000830152611a6381611a27565b9050919050565b7f4e487b7100000000000000000000000000000000000000000000000000000000600052603260045260246000fd5b7f476c6f6f62616c20696e646578206973206f7574206f6620626f756e64732100600082015250565b6000611acf601f836113ca565b9150611ada82611a99565b602082019050919050565b60006020820190508181036000830152611afe81611ac2565b9050919050565b7f4f6f70732c20717565727920666f72206e6f6e2d6578697374656e7420746f6b60008201527f656e000000000000000000000000000000000000000000000000000000000000602082015250565b6000611b616022836113ca565b9150611b6c82611b05565b604082019050919050565b60006020820190508181036000830152611b9081611b54565b9050919050565b7f6f776e657220717565727920666f72206e6f6e2d6578697374656e7420746f6b60008201527f656e000000000000000000000000000000000000000000000000000000000000602082015250565b6000611bf36022836113ca565b9150611bfe82611b97565b604082019050919050565b60006020820190508181036000830152611c2281611be6565b9050919050565b600081905092915050565b6000611c3f826113bf565b611c498185611c29565b9350611c598185602086016113db565b80840191505092915050565b6000611c718284611c34565b915081905092915050565b7f4572726f72202d204b6269726420616c7265616479206d696e74656400000000600082015250565b6000611cb2601c836113ca565b9150611cbd82611c7c565b602082019050919050565b60006020820190508181036000830152611ce181611ca5565b9050919050565b7f4e487b7100000000000000000000000000000000000000000000000000000000600052601160045260246000fd5b6000611d228261147a565b9150611d2d8361147a565b925082821015611d4057611d3f611ce8565b5b828203905092915050565b7f746f6b656e7320646f6573206e6f742065786973740000000000000000000000600082015250565b6000611d816015836113ca565b9150611d8c82611d4b565b602082019050919050565b60006020820190508181036000830152611db081611d74565b9050919050565b7f4572726f722c20455243373231205472616e7366657220746f20746865207a6560008201527f726f206164647265737300000000000000000000000000000000000000000000602082015250565b6000611e13602a836113ca565b9150611e1e82611db7565b604082019050919050565b60006020820190508181036000830152611e4281611e06565b9050919050565b7f547279696e6720746f207472616e73666572206120746f6b656e20746f20616e60008201527f2061646472657373207468617420646f65736e74206578697374000000000000602082015250565b6000611ea5603a836113ca565b9150611eb082611e49565b604082019050919050565b60006020820190508181036000830152611ed481611e98565b9050919050565b6000611ee68261147a565b9150611ef18361147a565b9250827fffffffffffffffffffffffffffffffffffffffffffffffffffffffffffffffff03821115611f2657611f25611ce8565b5b828201905092915050565b7f4552433732313a206d696e74696e6720746f20746865207a65726f206164647260008201527f6573730000000000000000000000000000000000000000000000000000000000602082015250565b6000611f8d6023836113ca565b9150611f9882611f31565b604082019050919050565b60006020820190508181036000830152611fbc81611f80565b9050919050565b7f4552433732313a20546f6b656e20616c7265616479206d696e74656400000000600082015250565b6000611ff9601c836113ca565b915061200482611fc3565b602082019050919050565b6000602082019050818103600083015261202881611fec565b905091905056fea2646970667358221220b693e0ef65ce7388e72c8a987690fb8b58c6313ec1438f5a66b4f6e22a07189f64736f6c634300080b0033",
  "immutableReferences": {},
  "source": "// SPDX-License-Identifier: MIT\r\n\r\npragma solidity ^0.8.0;\r\n\r\nimport \"./ERC721Connector.sol\";\r\n\r\ncontract KryptoBird is ERC721Connector {\r\n    // array to store the nfts\r\n\r\n    string[] public kryptoBirdz;\r\n\r\n    mapping(string => bool) _kryptoBirdzExists;\r\n\r\n    function mint(string memory _kryptoBird) public {\r\n        require(\r\n            !_kryptoBirdzExists[_kryptoBird],\r\n            \"Error - Kbird already minted\"\r\n        );\r\n        kryptoBirdz.push(_kryptoBird);\r\n        uint256 _id = kryptoBirdz.length - 1;\r\n\r\n        _mint(msg.sender, _id);\r\n        _kryptoBirdzExists[_kryptoBird] = true;\r\n    }\r\n\r\n    constructor() ERC721Connector(\"KryptoBird\", \"KBIRDZ\") {}\r\n}\r\n",
  "sourcePath": "C:\\Users\\Andreas\\Desktop\\NFT Marketplace\\nft-marketplace\\src\\contracts\\KryptoBirdz.sol",
  "compiler": {
    "name": "solc",
    "version": "0.8.11+commit.d7f03943.Emscripten.clang"
  },
  "schemaVersion": "3.4.3",
  "updatedAt": "2021-12-20T18:59:42.295Z",
  "networkType": "ethereum",
  "devdoc": {
    "kind": "dev",
    "methods": {
      "balanceOf(address)": {
        "details": "NFTs assigned to the zero address are considered invalid, and this  function throws for queries about the zero address.",
        "params": {
          "_owner": "An address for whom to query the balance"
        },
        "returns": {
          "_0": "The number of NFTs owned by `_owner`, possibly zero"
        }
      },
      "ownerOf(uint256)": {
        "details": "NFTs assigned to zero address are considered invalid, and queries  about them do throw.",
        "params": {
          "_tokenId": "The identifier for an NFT"
        },
        "returns": {
          "_0": "The address of the owner of the NFT"
        }
      },
      "supportsInterface(bytes4)": {
        "details": "Interface identification is specified in ERC-165. This function  uses less than 30,000 gas.",
        "params": {
          "interfaceID": "The interface identifier, as specified in ERC-165"
        },
        "returns": {
          "_0": "`true` if the contract implements `interfaceID` and  `interfaceID` is not 0xffffffff, `false` otherwise"
        }
      }
    },
    "version": 1
  },
  "userdoc": {
    "kind": "user",
    "methods": {
      "balanceOf(address)": {
        "notice": "Count all NFTs assigned to an owner"
      },
      "name()": {
        "notice": "A descriptive name for a collection of NFTs in this contract"
      },
      "ownerOf(uint256)": {
        "notice": "Find the owner of an NFT"
      },
      "supportsInterface(bytes4)": {
        "notice": "Query if a contract implements an interface"
      },
      "symbol()": {
        "notice": "An abbreviated name for NFTs in this contract"
      }
    },
    "version": 1
  }
}